:100000000C945D000C944F090C9428090C94850005
:100010000C9485000C9485000C9406060C948500C5
:100020000C9485000C9485000C9485000C9485003C
:100030000C9485000C9485000C9485000C9485002C
:100040000C94DE080C9485000C949C090C947609A1
:100050000C9485000C9485000C9485000C9485000C
:100060000C9485000C94850000000008000201003B
:100070000003040700000000000000000000000072
:10008000250028002B0000000000240027002A0083
:10009000040404040404040402020202020203032E
:1000A0000303030301020408102040800102040836
:1000B00010200102040810206A0A11241FBECFEF8D
:1000C000D8E0DEBFCDBF11E0A0E0B1E0E2E3F8E1AF
:1000D00002C005900D92AE34B107D9F722E0AEE42C
:1000E000B1E001C01D92AE36B207E1F710E0CDE5F8
:1000F000D0E004C02197FE010E94690BCC35D107E6
:10010000C9F70E94A90A0C94170C0C940000809166
:10011000590184608093590180915A0180788093BD
:100120005A01E0915C01F0915D01309709F009946A
:10013000089590E59CBD1DBC2A98E0E1F0E0319760
:10014000F1F78EBD00000DB407FEFDCF8EB5FB01AB
:100150009FEF4150C8F0222361F09EBD00000DB416
:1001600007FEFDCF8EB56115710599F38083319639
:10017000F0CFDF01119680818EBD00000DB407FE27
:10018000FDCF8EB5FD01E5CF2A9AE0E1F0E0319791
:10019000F1F70895CF93DF931F92CDB7DEB7698350
:1001A00020E041E0BE016F5F7F4F0E9499000F90F9
:1001B000DF91CF9108956FE080E20E94CA006091C4
:1001C0001C016F3F19F08AE20E94CA00299A089523
:1001D00020E040E060E070E00C9499000F931F93E2
:1001E000CF93DF93FC0182819091590190FF04C06D
:1001F0008F3F09F04FC005C08F3F19F0D0916101CA
:1002000001C0DFEF809160018083438142FD06C021
:10021000469546954695C7E0C40F01C0C0E28F01E0
:1002200080E090E0892B21F080E090E00E940000C7
:10023000299880E091E00197F1F76EE080E20E945A
:10024000CA0084EC90E00197F1F76D2F8AE20E94DA
:10025000CA006D2F80E30E94CA0081EE0E94E80070
:10026000DF3F11F080EA01C080EB4C2FC13208F073
:1002700040E220E0B8010E949900299A00E010E0D5
:100280008FEF0E94E800C82F807331F401501109EC
:10029000B9F702C0C0E02FC0299860E387E20E944E
:1002A000CA00C4FF03C081EE0E94E8000E94DB0088
:1002B000C5FBCC27C0F991E0DF3F09F090E0C92BE6
:1002C00080916101D81317C0C11110C080E090E087
:1002D000892B21F085E690E00E94000080915A0170
:1002E00091E0980F9F70807F892B03C080915A0105
:1002F000807F80935A018C2FDF91CF911F910F91B6
:10030000089580915A01982F9077903759F0982F3F
:1003100092959F709F5F97709295907F8F78892BB1
:1003200080935A01809159018B7F8F7E8093590170
:1003300080E090E0892B21F087E690E00E940000A9
:1003400029986CE080E20C94CA00CF93C82F8FEFFD
:100350008C0F8E3FA8F4C0936001C0931C0163E032
:1003600082E20E94CA0061E081E20E94CA000E940B
:10037000DB006C2F80E090E00E94050C81E00CC057
:1003800080E090E0892B21F08EE690E00E94000052
:100390008FEF8093600180E0CF91089580E090E03E
:1003A000892B21F088E090E00E9400008FEF80937D
:1003B0005B018091590188608093590128E143E0F5
:1003C0006FEF80E00E94420761E00E94CE090C942A
:1003D000EE000F931F930E947F080091510110912E
:1003E00052012091530130915401601B710B820B1B
:1003F000930B1F910F910895E9E5F1E08081877FCC
:100400008F7E8083109255011092560110925701F1
:100410001092580143E050E060E070E080E691E027
:100420000C94E50B0F931F93CF93DF93EC016115B1
:10043000710561F0FB0101900020E9F73197E61B9F
:10044000F70BE931F10518F0E9E101C0E0E00E2F0A
:1004500010E0C80123E0880F991F2A95E1F79B81DE
:100460009770892B8B838C818F718C83EE2329F07D
:10047000A801CE0107960E94740BFE01E00FF11F48
:100480001782CE01DF91CF911F910F910895809136
:1004900060018F3FA1F480E090E0892B21F086E09D
:1004A00090E00E94000023E043E06FEF80E00E94B4
:1004B000420767E471E00E9412020C94EE00089576
:1004C00080E090E0892B21F084E090E00E94000021
:1004D00080915901897F8160809359018FEF8093CA
:1004E00062018093610127E043E06FEF0E944207C1
:1004F00067E471E00E9412020C94EE002091590111
:1005000022FD0C94EE0080E008956F927F928F920E
:100510009F92AF92BF92DF92EF92FF920F931F9341
:10052000CF93DF9300D0CDB7DEB7E0914F01F091CC
:1005300050010280F381E02D309709F009958091F8
:10054000590184FBEE24E0F884FFB1C186E0F82E67
:1005500090E0692E90E0792E00E010E021E2D22EAA
:1005600021E041E060E070E087E10E94990080FDB9
:100570009EC1FA94FF2009F49AC16114710421F01C
:1005800081E090E00E94000021E041E060E070E046
:1005900080E60E949900A82E80E28A1520F482EE5F
:1005A0000E94E800A12C21E04A2D64E871E081E678
:1005B0000E94990060E487E20E94CA00909187013E
:1005C000292F2695269526952A3108F029E192FDB6
:1005D00003C047E0420F01C040E2E0918801509122
:1005E0008901B09085013091840180918601A41623
:1005F00039F06114710409F4B3CF8CE690E00AC0BD
:10060000492F4370423049F06114710409F4A8CFB6
:100610008DE690E00E940000A3CF4E2F47706091BE
:100620005A01606860935A0160916001861349C065
:1006300030E0B901F3E0660F771FFA95E1F79770A4
:10064000962B90938701D901AC57BE4F17961C92F9
:10065000E3FF1BC0E4E8F1E0A3E6B1E09D2D0190CB
:100660000D929A95E1F790916701977F9061909331
:10067000670180936401B092650183E691E049834C
:100680005A830E947E025A8149812091880124FD6B
:1006900013C0433089F49091890181EF890F833031
:1006A00008F03FC05DCF913009F4DEC09A3009F404
:1006B00057CF9C3109F454CF84E891E00E94F307AE
:1006C0004FCF8F3F09F04CCF433031F58091590126
:1006D00082FF03C0573009F443CF583009F440CFAC
:1006E000543109F03DCF80916101381339CF0E9418
:1006F0007F087370882799270E944508A0906101A0
:1007000025E143E06FEF8B2D0E9442076A2D0E9486
:10071000CE090E94EE0024CF80916101381320CFD2
:10072000CBCF543029F40E9494070E94A50118CF22
:100730005830D1F4A0905901A0FE12CF0E94940726
:100740008F3F09F40DCF91E0980F9F3F09F408CF38
:1007500080916201981708F003CFA1FC01CF90931C
:100760006201B0926101FCCE583141F429E143E0CD
:100770006FEF8B2D0E94420761E0C9CF593161F4C0
:100780008091590183FFECCE877F809359010E94AD
:10079000940780935B01E4CE80918501811183C031
:1007A0009D3099F480E090E0892B21F08BE090E07F
:1007B0000E94000098E088E10FB6F894A895809315
:1007C00060000FBE90936000FFCF9B3199F40E94B0
:1007D000940791E0811101C090E080915F0190FB4E
:1007E00080F980935F016114710409F4B9CE8AE045
:1007F00090E010CF9630A9F490918B01992329F0C5
:1008000081E09D3419F080E001C08E2D80935E015F
:1008100041E050E063E071E08EE591E00E94F50B6D
:100820009FCE933119F40E94DA099ACE923109F0E1
:100830003ACF0E94E9014B015C0126E143E06FEFF2
:1008400080E00E944207FC0184818F71806A84836A
:10085000838187708062838387829086A186B28637
:10086000CF010E947E027CCE0115110509F478CEDD
:10087000229526952770253049F460918B0170915F
:100880008C0180918D0190918E010AC0211105C0CB
:100890008BE891E00E94A10B03C060E070E0CB0107
:1008A0000E9400005DCE9A3109F006CF59CE0F901C
:1008B0000F90DF91CF911F910F91FF90EF90DF90FC
:1008C000BF90AF909F908F907F906F9008959C0104
:1008D00080914F01909150018217930751F09091B0
:1008E00059019F71909359013093500120934F010A
:1008F00005C080915901805E80935901E0914F01BC
:10090000F09150010190F081E02D309709F00995A8
:100910000E947F08609351017093520180935301AC
:100920009093540108950F931F930E94E901209121
:100930005A012077203729F000E117E220E030E06B
:1009400004C000E61AEE20E030E00617170728077B
:10095000390730F48DE191E01F910F910C946704F9
:100960001F910F91089580915A018F70863020F069
:1009700088E191E00C946704089580915B018F3FBA
:10098000A1F00E947F0860935501709356018093F7
:1009900057019093580180915B01909162018913F6
:1009A0008093620184E191E01BC00E94E901613DF6
:1009B000774081059105B0F080915901803618F497
:1009C00080E191E00DC0877F8093590180E090E045
:1009D000892B21F08AE690E00E94000088E191E0F6
:1009E0000C9467040895809160018F3F59F080E076
:1009F00090E0892B21F087E090E00E94000080E1E8
:100A000091E018C00E94E901613D774081059105A0
:100A100098F080915901803618F48CE091E00AC07A
:100A200080E090E0892B21F089E690E00E940000B0
:100A300088E091E00C94670408950E94E901613D0B
:100A400077408105910520F48091590181FF089537
:100A5000809161018F3F81F0809159018E7F809359
:100A6000590180E090E0892B21F085E090E00E9420
:100A700000008CE091E011C080915901803618F49B
:100A800088E191E00AC080E090E0892B21F088E6BF
:100A900090E00E94000088E091E00C946704CF93FE
:100AA000219A229ACFB7F89480914E01811124C0E7
:100AB000EAE9F0E08491EEEAF0E09491E82FF0E0CA
:100AC000EE0FFF1FEA57FF4FA591B491EC91E92378
:100AD00021F461E08AE00E94A7078AE00E9475077E
:100AE0008CB580618CBD8CB580648CBD8DE00E941E
:100AF00075078BE00E94750780914E018F5F809390
:100B00004E01CFBF29982A9A6EE080E20E94CA0067
:100B100065E070E080E090E00E94450863E083E2D9
:100B20000E94CA006FE584E20E94CA006CE485E27C
:100B30000E94CA0067E286E20E94CA0063E780E57D
:100B40000E94CA0066E08DE30E94CA0021E041E0F5
:100B500060E070E086E00E949900C82F21E041E04B
:100B600060E070E085E00E9499008C3409F040C09C
:100B7000C732F1F562E082E20E94CA0060E081E2E1
:100B80000E94CA0063E08CE30E94CA008FEF80934A
:100B9000030120E045E063E071E08BE20E949900F0
:100BA00020E045E063E071E08AE20E94990020E0E5
:100BB00045E063E071E080E30E94990082EE0E94CC
:100BC000E80081EE0E94E80060E787E20E94CA0028
:100BD00080915901806180935901809160018F3F1C
:100BE00081F00E94A50181110CC088E091E00BC04A
:100BF00080E090E0892BC9F387E690E00E94000036
:100C0000F4CF88E191E0CF910C9467041F920F928A
:100C10000FB60F9211240F900FBE0F901F901895D2
:100C20003FB7F8948091AC019091AD01A091AE01D5
:100C3000B091AF0126B5A89B05C02F3F19F00196D2
:100C4000A11DB11D3FBFBA2FA92F982F8827820F52
:100C5000911DA11DB11DBC01CD0143E0660F771FA1
:100C6000881F991F4A95D1F708950895CF92DF9272
:100C7000EF92FF920F931F93CF93DF936C017A0152
:100C80008B01C0E0D0E0CE15DF0589F0D8016D9171
:100C90008D01D601ED91FC910190F081E02DC6010E
:100CA0000995892B11F47E0102C02196ECCFC70172
:100CB000DF91CF911F910F91FF90EF90DF90CF9038
:100CC0000895089580E090E00895FC01538D448DCF
:100CD000252F30E0842F90E0821B930B541710F0E7
:100CE000CF96089501970895FC01918D828D9817F4
:100CF00061F0828DDF01A80FB11D5D968C91928D00
:100D00009F5F9F73928F90E008958FEF9FEF0895FC
:100D1000FC01918D828D981731F0828DE80FF11DC5
:100D2000858D90E008958FEF9FEF0895FC01918DE0
:100D3000228D892F90E0805C9F4F821B91098F73D9
:100D40009927089580EB91E00E94960621E0892B77
:100D500009F420E0822F0895FC01848DDF01A80FA3
:100D6000B11DA35ABF4F2C91848D90E001968F73D3
:100D70009927848FA689B7892C93A089B1898C91F2
:100D800080648C93938D848D981306C00288F389B8
:100D9000E02D80818F7D80830895EF92FF920F93E5
:100DA0001F93CF93DF93EC0181E0888F9B8D8C8D17
:100DB000981305C0E889F989808185FD24C0F62E45
:100DC0000B8D10E00F5F1F4F0F731127E02E8C8DDE
:100DD000E8120CC00FB607FCFACFE889F9898081C8
:100DE00085FFF5CFCE010E94AC06F1CF8B8DFE01C1
:100DF000E80FF11DE35AFF4FF0820B8FEA89FB8960
:100E00008081806207C0EE89FF896083E889F98963
:100E100080818064808381E090E0DF91CF911F9199
:100E20000F91FF90EF900895CF93DF93EC01888DA1
:100E30008823C9F0EA89FB89808185FD05C0A889DE
:100E4000B9898C9186FD0FC00FB607FCF5CF808164
:100E500085FFF2CFA889B9898C9185FFEDCFCE01AE
:100E60000E94AC06E7CFDF91CF91089580E090E03B
:100E7000892B29F00E94A20681110C94000008958C
:100E80000E946F0BE3E6F1E0909160019183828311
:100E90006683258347708481807E482B4483CF01FD
:100EA00008952BE043E06FEF80E00E94420767E384
:100EB00071E00E9412020E947E022CE043E06FEF7C
:100EC00080E00E94420764E471E00E9412020E94E6
:100ED0007E0223E040E061E080E00E94420767E498
:100EE00071E00E9412020C947E0290E0FC01EC552D
:100EF000FF4F2491FC01E057FF4F8491882399F024
:100F000090E0880F991FFC01EA57FF4FA591B4911B
:100F1000FC01E458FF4F859194918FB7F894EC91C0
:100F2000E22BEC938FBF089580918801829586957E
:100F30008770813019F480918B010895811105C06B
:100F40008BE891E00E94830B089580E0089590E083
:100F5000FC01E859FF4F3491FC01EC55FF4F2491FF
:100F6000FC01E057FF4FE491EE2309F43BC033232B
:100F700039F1333091F038F43130A9F0323001F5E5
:100F800084B58F7D12C0373091F03830A1F0343005
:100F9000B9F4809180008F7D03C0809180008F77AD
:100FA000809380000DC084B58F7784BD09C0809187
:100FB000B0008F7703C08091B0008F7D8093B00028
:100FC000F0E0EE0FFF1FE458FF4FA591B4918FB7EB
:100FD000F894EC91611103C020952E2301C02E2BB3
:100FE0002C938FBF0895CF93FC012581223009F007
:100FF00043C02091A601211103C021E02093A60146
:10100000FC018481829586958770823019F48781EE
:10101000908509C0811105C0CF0107960E94830BFE
:1010200002C080E090E0C1E0892B09F4C0E0C093E9
:10103000A5016C2F84E00E94A70780915102909136
:10104000500297709061909350026C2F70E07093F3
:101050005502609354029091600190934E0280710A
:1010600081648093510280915F0180FF05C08DE40F
:1010700092E0CF910C947E02CF91089560E084E0DD
:101080000E94A70784E00C9475078F929F92AF92FD
:10109000BF92CF92DF92EF92FF926B017C010E9490
:1010A00010064B015C01C114D104E104F104F1F01C
:1010B0000E941006DC01CB0188199909AA09BB0915
:1010C000883E9340A105B10570F321E0C21AD10812
:1010D000E108F10888EE880E83E0981EA11CB11C7F
:1010E000C114D104E104F10419F7DDCFFF90EF90B2
:1010F000DF90CF90BF90AF909F908F9008952FB7C3
:10110000F8946091A8017091A9018091AA01909131
:10111000AB012FBF0895CF92DF92EF92FF920F9312
:101120001F93CF93DF93082FD62F0E947F086B0168
:101130007C0191E0D11190E090938901C0E010E032
:101140000E947F08DC01CB018C199D09AE09BF0903
:10115000803D9740A105B10598F4C11111C0A89533
:101160000E94850220918801277030E02017310706
:1011700039F7C1E0809189018D1711F3C0E0E0CF0C
:101180008C2FDF91CF911F910F91FF90EF90DF9007
:10119000CF9008958091A60181110FC022E042E016
:1011A00061E00E94420767E471E00E9412020E941F
:1011B0007E0262E081E00C948B0808951F920F92EA
:1011C0000FB60F9211242F933F938F939F93AF935A
:1011D000BF938091A8019091A901A091AA01B0911B
:1011E000AB013091A70126E0230F2D3720F40296A2
:1011F000A11DB11D05C029E8230F0396A11DB11D36
:101200002093A7018093A8019093A901A093AA011C
:10121000B093AB018091AC019091AD01A091AE0172
:10122000B091AF010196A11DB11D8093AC019093C7
:10123000AD01A093AE01B093AF01BF91AF919F916B
:101240008F913F912F910F900FBE0F901F90189587
:101250001F920F920FB60F9211242F933F934F932B
:101260005F936F937F938F939F93AF93BF93EF930E
:10127000FF93E0912301F09124010995FF91EF91F3
:10128000BF91AF919F918F917F916F915F914F919E
:101290003F912F910F900FBE0F901F9018951F92A6
:1012A0000F920FB60F9211242F933F934F935F939A
:1012B0006F937F938F939F93AF93BF93EF93FF931E
:1012C000E0912101F09122010995FF91EF91BF91E9
:1012D000AF919F918F917F916F915F914F913F91CE
:1012E0002F910F900FBE0F901F9018951F920F9285
:1012F0000FB60F9211242F933F934F935F936F93E9
:101300007F938F939F93AF93BF93EF93FF9380EB64
:1013100091E00E94AC06FF91EF91BF91AF919F9138
:101320008F917F916F915F914F913F912F910F908E
:101330000FBE0F901F9018951F920F920FB60F922D
:1013400011242F938F939F93EF93FF93E091C0010C
:10135000F091C1018081E091C601F091C70182FD49
:1013600012C090818091C9018F5F8F732091CA0153
:10137000821751F0E091C901F0E0E055FE4F958FE2
:101380008093C90101C08081FF91EF919F918F915E
:101390002F910F900FBE0F901F901895FC01838125
:1013A00087708860838384818F7180628483678380
:1013B000CF010895CF9380E090E0892B21F08CE05D
:1013C00090E00E9400002FE043E06FEF80E00E9479
:1013D000420767E471E00E94120280916601877003
:1013E000806180936601809167018F71806C80932A
:1013F000670181E080936A0110926B0183E691E0BE
:101400000E947E026FE083E00E948B0821E140E0B1
:101410006FEF80E00E94420768E471E00E941202D0
:101420000E947E02C091610126E043E06FEF80E000
:101430000E9442076C2F0E94CE090E947E0266E045
:1014400083E00E948B08CF910C945107CF93809139
:101450005F0181FD28C00E94DA0980E090E0892BBD
:1014600021F089E090E00E94000080915F0181609E
:1014700080935F01C4E02AE143E06FEF80E00E94C7
:10148000420762E00E94CE090E947E026BE183E087
:101490000E948B08811102C0C15069F780915F01E1
:1014A000826080935F01CF910895CF93DF93FC0119
:1014B000108211821282148215821682DC01179624
:1014C0008AE1ED0119928A95E9F782E08383DF9141
:1014D000CF910895E0EBF1E01382128288EE93E061
:1014E000A0E0B0E084839583A683B78389E291E08E
:1014F0009183808385EC90E09587848784EC90E0ED
:101500009787868780EC90E0918B808B81EC90E0D0
:10151000938B828B82EC90E0958B848B86EC90E0B1
:10152000978B868B118E128E138E148E84E891E029
:101530000E94550A83E691E00E94550A8DE492E0EC
:101540000E94550AEDE4F2E081E0868382E0858323
:101550000895789484B5826084BD84B5816084BD2B
:1015600085B5826085BD85B5816085BD80916E0041
:10157000816080936E001092810080918100826072
:1015800080938100809181008160809381008091AF
:1015900080008160809380008091B100846080939E
:1015A000B1008091B00081608093B00080917A009A
:1015B000846080937A0080917A00826080937A00C0
:1015C00080917A008E7F80937A0080917A00806883
:1015D00080937A001092C100A89580E090E0892B5A
:1015E00011F00E940000E091C001F091C10182E081
:1015F0008083E091BC01F091BD011082E091BE01B9
:10160000F091BF0188E080831092C801E091C4018D
:10161000F091C50186E08083E091C201F091C301A1
:10162000808180618083E091C201F091C30180815B
:1016300088608083E091C201F091C301808180685D
:101640008083E091C201F091C30180818F7D80830E
:1016500080915F018D7F80935F0180E090E0892B16
:1016600011F00E94000041E050E063E071E08EE57F
:1016700091E00E94E50B6FEF81E090E00E94050C85
:1016800080915A018F7880935A01109250011092E4
:101690004F018DE191E00E94670486E29AE0909309
:1016A0005D0180935C010E947F080E947F080E9478
:1016B0008502A8958091590182FFF7CF0E943E08CC
:1016C000A895A8950E9485020E94CA080E94360724
:1016D000F8CFEE0FFF1F0590F491E02D099481E003
:1016E00090E0F8940C94170CFB01DC014150504041
:1016F00048F001900D920020C9F701C01D924150A1
:101700005040E0F70895FC0188279927E89421913B
:101710002032E9F3293010F02E30C8F32B3241F09B
:101720002D3239F4689404C00E94DD0B820F911DA4
:10173000219120532A30C0F31EF4909581959F4F3C
:1017400008951F93FC0199278827BC01E894119103
:101750001032E9F3193010F01E30C8F31B3251F08B
:101760001D3249F4689406C00E94C80B610F711DB8
:10177000811D911D119110531A30B0F33EF49095D4
:101780008095709561957F4F8F4F9F4F1F91089562
:10179000592F482F372F262F660F771F881F991F25
:1017A000660F771F881F991F620F731F841F951F75
:1017B000660F771F881F991F08957AE0979F902DD5
:1017C000879F802D910D11240895DC01CB01FC0130
:1017D000F999FECF06C0F2BDE1BDF89A319600B48A
:1017E0000D9241505040B8F70895DC01A40FB51F89
:1017F0004150504048F0CB01840F951F2E910E941C
:10180000060C41505040D0F70895262FF999FECF8D
:1018100092BD81BDF89A019700B4021639F01FBA43
:1018200020BD0FB6F894FA9AF99A0FBE0895F8946D
:02183000FFCFE8
:10183200FFFFFF00FCE1A8A8810193044702F30423
:10184200CE01BD048700B30460021D05FFFC014FF9
:10185200053506350600000000CD0636066506147D
:101862000796067406880652656C61792B62757458
:0E187200746F6E00312E3000322E312E310098
:00000001FF
